{
  "_format": "hh-sol-artifact-1",
  "contractName": "QuantaidProof",
  "sourceName": "contracts/QuantaidProof.sol",
  "abi": [
    {
      "anonymous": false,
      "inputs": [
        {
          "indexed": true,
          "internalType": "uint256",
          "name": "proofId",
          "type": "uint256"
        },
        {
          "indexed": false,
          "internalType": "bytes32",
          "name": "dataHash",
          "type": "bytes32"
        },
        {
          "indexed": false,
          "internalType": "address",
          "name": "owner",
          "type": "address"
        }
      ],
      "name": "DataSecured",
      "type": "event"
    },
    {
      "inputs": [],
      "name": "proofCount",
      "outputs": [
        {
          "internalType": "uint256",
          "name": "",
          "type": "uint256"
        }
      ],
      "stateMutability": "view",
      "type": "function"
    },
    {
      "inputs": [
        {
          "internalType": "uint256",
          "name": "",
          "type": "uint256"
        }
      ],
      "name": "proofs",
      "outputs": [
        {
          "internalType": "bytes32",
          "name": "dataHash",
          "type": "bytes32"
        },
        {
          "internalType": "uint64",
          "name": "timestamp",
          "type": "uint64"
        },
        {
          "internalType": "address",
          "name": "owner",
          "type": "address"
        }
      ],
      "stateMutability": "view",
      "type": "function"
    },
    {
      "inputs": [
        {
          "internalType": "bytes32",
          "name": "dataHash",
          "type": "bytes32"
        }
      ],
      "name": "secureDataset",
      "outputs": [
        {
          "internalType": "uint256",
          "name": "proofId",
          "type": "uint256"
        }
      ],
      "stateMutability": "nonpayable",
      "type": "function"
    }
  ],
  "bytecode": "0x60806040523461001a576040516104ab61002082396104ab90f35b600080fdfe6080604052600436101561001257600080fd5b60003560e01c806371bad96e146100425780639ddaf5aa1461003d5763addecc0603610047576101d1565b61017a565b61006e565b600080fd5b905035905b565b90602082820312610047576100679161004c565b90565b9052565b3461004757610099610089610084366004610053565b6103c8565b6040519182918290815260200190565b0390f35b6100676100676100679290565b906100b49061009d565b600052602052604060002090565b6100679081565b61006790546100c2565b6001600160401b031690565b610067906100d3565b6100d3565b61006790546100df565b6100679060401c5b6001600160a01b031690565b61006790546100f7565b6101209060006100aa565b610129816100c9565b91610067600161013a8185016100ed565b930161010b565b61006a906100d3565b61006a906100ff565b908152606081019392610051929091604091610173906020830190610141565b019061014a565b3461004757610099610195610190366004610053565b610115565b60405191939193849384610153565b600091031261004757565b610067916008021c81565b9061006791546101af565b610067600060016101ba565b34610047576101e13660046101a4565b6100996100896101c5565b634e487b7160e01b600052601160045260246000fd5b60001981146102115760010190565b6101ec565b90600019905b9181191691161790565b9061023661006761023d9261009d565b8254610216565b9055565b6100e86100676100679290565b634e487b7160e01b600052604160045260246000fd5b90601f01601f191681019081106001600160401b0382111761028557604052565b61024e565b9061005161029760405190565b9283610264565b610067606061028a565b9061006a906100d3565b9061006a906100ff565b9061023661006761023d9290565b61006790516100d3565b906001600160401b039061021c565b6100e8610067610067926100d3565b9061030261006761023d926102e3565b82546102d4565b61006790516100ff565b90600160401b600160e01b039060401b61021c565b610067906100ff906001600160a01b031682565b61006790610328565b6100679061033c565b9061035e61006761023d92610345565b8254610313565b61005191906103a39060409060019061038681610380875190565b906102bc565b019261039d610397602083016102ca565b856102f2565b01610309565b9061034e565b9061005191610365565b90815260408101929161005191602090610173565b906103db6103d660016100c9565b610202565b916103e7836001610226565b826103f142610241565b610430339161041361040161029e565b9161040a878452565b602083016102a8565b61042083604083016102b2565b61042b8460006100aa565b6103a9565b61045a7f4e0a9b69ab03719b05e3bbc902202fa35a7827824e1a753161eb739363e75a529261009d565b9261047061046760405190565b928392836103b3565b0390a256fea2646970667358221220d67dcb0fecd761b1330f2d71a1e76c1c0507f272530c43e6b76007c690b79eeb64736f6c63430008140033",
  "linkReferences": {},
  "deployedLinkReferences": {}
}